{
  "contractName": "Main",
  "abi": [
    {
      "inputs": [],
      "stateMutability": "nonpayable",
      "type": "constructor"
    },
    {
      "inputs": [],
      "name": "getOwner",
      "outputs": [
        {
          "internalType": "address",
          "name": "",
          "type": "address"
        }
      ],
      "stateMutability": "view",
      "type": "function",
      "constant": true
    },
    {
      "inputs": [],
      "name": "getContract",
      "outputs": [
        {
          "internalType": "address",
          "name": "",
          "type": "address"
        }
      ],
      "stateMutability": "view",
      "type": "function",
      "constant": true
    },
    {
      "inputs": [
        {
          "internalType": "address",
          "name": "receiver",
          "type": "address"
        },
        {
          "internalType": "uint256",
          "name": "amount",
          "type": "uint256"
        }
      ],
      "name": "sendTokens",
      "outputs": [],
      "stateMutability": "payable",
      "type": "function",
      "payable": true
    },
    {
      "inputs": [
        {
          "internalType": "address",
          "name": "the_address",
          "type": "address"
        }
      ],
      "name": "getAddressBalance",
      "outputs": [
        {
          "internalType": "uint256",
          "name": "",
          "type": "uint256"
        }
      ],
      "stateMutability": "view",
      "type": "function",
      "constant": true
    },
    {
      "inputs": [],
      "name": "getContractBalance",
      "outputs": [
        {
          "internalType": "uint256",
          "name": "",
          "type": "uint256"
        }
      ],
      "stateMutability": "view",
      "type": "function",
      "constant": true
    },
    {
      "inputs": [
        {
          "internalType": "uint256",
          "name": "amount",
          "type": "uint256"
        }
      ],
      "name": "mint",
      "outputs": [],
      "stateMutability": "nonpayable",
      "type": "function"
    }
  ],
  "bytecode": "0x608060405234801561001057600080fd5b50629896806040516100219061010e565b80828152602001915050604051809103906000f080158015610047573d6000803e3d6000fd5b506000806101000a81548173ffffffffffffffffffffffffffffffffffffffff021916908373ffffffffffffffffffffffffffffffffffffffff16021790555033600160006101000a81548173ffffffffffffffffffffffffffffffffffffffff021916908373ffffffffffffffffffffffffffffffffffffffff16021790555030600260006101000a81548173ffffffffffffffffffffffffffffffffffffffff021916908373ffffffffffffffffffffffffffffffffffffffff16021790555061011b565b61109a806109cd83390190565b6108a38061012a6000396000f3fe6080604052600436106100555760003560e01c806305ab421d1461005a57806335046722146100a85780636f9fb98a1461010d578063893d20e814610138578063958f85bd1461018f578063a0712d68146101e6575b600080fd5b6100a66004803603604081101561007057600080fd5b81019080803573ffffffffffffffffffffffffffffffffffffffff16906020019092919080359060200190929190505050610221565b005b3480156100b457600080fd5b506100f7600480360360208110156100cb57600080fd5b81019080803573ffffffffffffffffffffffffffffffffffffffff1690602001909291905050506104b9565b6040518082815260200191505060405180910390f35b34801561011957600080fd5b5061012261059b565b6040518082815260200191505060405180910390f35b34801561014457600080fd5b5061014d61069d565b604051808273ffffffffffffffffffffffffffffffffffffffff1673ffffffffffffffffffffffffffffffffffffffff16815260200191505060405180910390f35b34801561019b57600080fd5b506101a46106c7565b604051808273ffffffffffffffffffffffffffffffffffffffff1673ffffffffffffffffffffffffffffffffffffffff16815260200191505060405180910390f35b3480156101f257600080fd5b5061021f6004803603602081101561020957600080fd5b81019080803590602001909291905050506106f1565b005b600a81111561027b576040517f08c379a000000000000000000000000000000000000000000000000000000000815260040180806020018281038252603181526020018061083d6031913960400191505060405180910390fd5b600061028682610828565b9050803410156102fe576040517f08c379a00000000000000000000000000000000000000000000000000000000081526004018080602001828103825260138152602001807f496e737566696369656e742062616c616e63650000000000000000000000000081525060200191505060405180910390fd5b600081340390503373ffffffffffffffffffffffffffffffffffffffff166108fc829081150290604051600060405180830381858888f1935050505015801561034b573d6000803e3d6000fd5b50600061035661059b565b9050808411156103ce576040517f08c379a00000000000000000000000000000000000000000000000000000000081526004018080602001828103825260128152602001807f496e737566696369656e7420746f6b656e73000000000000000000000000000081525060200191505060405180910390fd5b6000809054906101000a900473ffffffffffffffffffffffffffffffffffffffff1673ffffffffffffffffffffffffffffffffffffffff1663a9059cbb86866040518363ffffffff1660e01b8152600401808373ffffffffffffffffffffffffffffffffffffffff1673ffffffffffffffffffffffffffffffffffffffff16815260200182815260200192505050602060405180830381600087803b15801561047657600080fd5b505af115801561048a573d6000803e3d6000fd5b505050506040513d60208110156104a057600080fd5b8101908080519060200190929190505050505050505050565b60008060009054906101000a900473ffffffffffffffffffffffffffffffffffffffff1673ffffffffffffffffffffffffffffffffffffffff166370a08231836040518263ffffffff1660e01b8152600401808273ffffffffffffffffffffffffffffffffffffffff1673ffffffffffffffffffffffffffffffffffffffff16815260200191505060206040518083038186803b15801561055957600080fd5b505afa15801561056d573d6000803e3d6000fd5b505050506040513d602081101561058357600080fd5b81019080805190602001909291905050509050919050565b60008060009054906101000a900473ffffffffffffffffffffffffffffffffffffffff1673ffffffffffffffffffffffffffffffffffffffff166370a08231600260009054906101000a900473ffffffffffffffffffffffffffffffffffffffff166040518263ffffffff1660e01b8152600401808273ffffffffffffffffffffffffffffffffffffffff1673ffffffffffffffffffffffffffffffffffffffff16815260200191505060206040518083038186803b15801561065d57600080fd5b505afa158015610671573d6000803e3d6000fd5b505050506040513d602081101561068757600080fd5b8101908080519060200190929190505050905090565b6000600160009054906101000a900473ffffffffffffffffffffffffffffffffffffffff16905090565b6000600260009054906101000a900473ffffffffffffffffffffffffffffffffffffffff16905090565b6106f961069d565b73ffffffffffffffffffffffffffffffffffffffff163373ffffffffffffffffffffffffffffffffffffffff1614610799576040517f08c379a00000000000000000000000000000000000000000000000000000000081526004018080602001828103825260208152602001807f4f6e6c79206f776e65722063616e2075736520746869732066756e6374696f6e81525060200191505060405180910390fd5b6000809054906101000a900473ffffffffffffffffffffffffffffffffffffffff1673ffffffffffffffffffffffffffffffffffffffff16631d43cc98826040518263ffffffff1660e01b815260040180828152602001915050600060405180830381600087803b15801561080d57600080fd5b505af1158015610821573d6000803e3d6000fd5b5050505050565b6000670de0b6b3a76400008202905091905056fe4c612063616e746964616420646520746f6b656e73206120636f6d707261722065732064656d61736961646f20616c7461a26469706673582212208ffa3c6ccd09adfa707a126f1f1fb50ce584a1e65f9de97ee98c929f980eceeb64736f6c63430006080033608060405234801561001057600080fd5b5060405161109a38038061109a83398181016040528101906100329190610099565b806002819055506002546000803373ffffffffffffffffffffffffffffffffffffffff1673ffffffffffffffffffffffffffffffffffffffff16815260200190815260200160002081905550506100e3565b600081519050610093816100cc565b92915050565b6000602082840312156100ab57600080fd5b60006100b984828501610084565b91505092915050565b6000819050919050565b6100d5816100c2565b81146100e057600080fd5b50565b610fa8806100f26000396000f3fe608060405234801561001057600080fd5b50600436106100a95760003560e01c8063313ce56711610071578063313ce567146101665780636e1145111461018457806370a08231146101a057806395d89b41146101d0578063a9059cbb146101ee578063dd62ed3e1461021e576100a9565b806306fdde03146100ae578063095ea7b3146100cc57806318160ddd146100fc5780631d43cc981461011a57806323b872dd14610136575b600080fd5b6100b661024e565b6040516100c39190610dd7565b60405180910390f35b6100e660048036038101906100e19190610c0b565b610287565b6040516100f39190610dbc565b60405180910390f35b610104610382565b6040516101119190610e59565b60405180910390f35b610134600480360381019061012f9190610c47565b61038c565b005b610150600480360381019061014b9190610bbc565b6103eb565b60405161015d9190610dbc565b60405180910390f35b61016e6107d2565b60405161017b9190610e74565b60405180910390f35b61019e60048036038101906101999190610c47565b6107d7565b005b6101ba60048036038101906101b59190610b57565b6107da565b6040516101c79190610e59565b60405180910390f35b6101d8610822565b6040516101e59190610dd7565b60405180910390f35b61020860048036038101906102039190610c0b565b61085b565b6040516102159190610dbc565b60405180910390f35b61023860048036038101906102339190610b80565b610a73565b6040516102459190610e59565b60405180910390f35b6040518060400160405280600981526020017f5675636520436f696e000000000000000000000000000000000000000000000081525081565b600081600160003373ffffffffffffffffffffffffffffffffffffffff1673ffffffffffffffffffffffffffffffffffffffff16815260200190815260200160002060008573ffffffffffffffffffffffffffffffffffffffff1673ffffffffffffffffffffffffffffffffffffffff168152602001908152602001600020600082825401925050819055508273ffffffffffffffffffffffffffffffffffffffff163373ffffffffffffffffffffffffffffffffffffffff167f8c5be1e5ebec7d5bd14f71427d1e84f3dd0314c0f7b2291e5b200ac8c7c3b925846040516103709190610e59565b60405180910390a36001905092915050565b6000600254905090565b80600260008282540192505081905550806000803373ffffffffffffffffffffffffffffffffffffffff1673ffffffffffffffffffffffffffffffffffffffff1681526020019081526020016000206000828254019250508190555050565b6000816000808673ffffffffffffffffffffffffffffffffffffffff1673ffffffffffffffffffffffffffffffffffffffff16815260200190815260200160002054101561046e576040517f08c379a000000000000000000000000000000000000000000000000000000000815260040161046590610df9565b60405180910390fd5b81600160008673ffffffffffffffffffffffffffffffffffffffff1673ffffffffffffffffffffffffffffffffffffffff16815260200190815260200160002060003373ffffffffffffffffffffffffffffffffffffffff1673ffffffffffffffffffffffffffffffffffffffff16815260200190815260200160002054101561052d576040517f08c379a000000000000000000000000000000000000000000000000000000000815260040161052490610e19565b60405180910390fd5b61057e826000808773ffffffffffffffffffffffffffffffffffffffff1673ffffffffffffffffffffffffffffffffffffffff16815260200190815260200160002054610afa90919063ffffffff16565b6000808673ffffffffffffffffffffffffffffffffffffffff1673ffffffffffffffffffffffffffffffffffffffff1681526020019081526020016000208190555061064f82600160008773ffffffffffffffffffffffffffffffffffffffff1673ffffffffffffffffffffffffffffffffffffffff16815260200190815260200160002060003373ffffffffffffffffffffffffffffffffffffffff1673ffffffffffffffffffffffffffffffffffffffff16815260200190815260200160002054610afa90919063ffffffff16565b600160008673ffffffffffffffffffffffffffffffffffffffff1673ffffffffffffffffffffffffffffffffffffffff16815260200190815260200160002060003373ffffffffffffffffffffffffffffffffffffffff1673ffffffffffffffffffffffffffffffffffffffff16815260200190815260200160002081905550610720826000808673ffffffffffffffffffffffffffffffffffffffff1673ffffffffffffffffffffffffffffffffffffffff16815260200190815260200160002054610b1190919063ffffffff16565b6000808573ffffffffffffffffffffffffffffffffffffffff1673ffffffffffffffffffffffffffffffffffffffff168152602001908152602001600020819055508273ffffffffffffffffffffffffffffffffffffffff168473ffffffffffffffffffffffffffffffffffffffff167fddf252ad1be2c89b69c2b068fc378daa952ba7f163c4a11628f55a4df523b3ef846040516107bf9190610e59565b60405180910390a3600190509392505050565b600281565b50565b60008060008373ffffffffffffffffffffffffffffffffffffffff1673ffffffffffffffffffffffffffffffffffffffff168152602001908152602001600020549050919050565b6040518060400160405280600481526020017f565543450000000000000000000000000000000000000000000000000000000081525081565b60008060003373ffffffffffffffffffffffffffffffffffffffff1673ffffffffffffffffffffffffffffffffffffffff168152602001908152602001600020548211156108de576040517f08c379a00000000000000000000000000000000000000000000000000000000081526004016108d590610e39565b60405180910390fd5b61092f826000803373ffffffffffffffffffffffffffffffffffffffff1673ffffffffffffffffffffffffffffffffffffffff16815260200190815260200160002054610afa90919063ffffffff16565b6000803373ffffffffffffffffffffffffffffffffffffffff1673ffffffffffffffffffffffffffffffffffffffff168152602001908152602001600020819055506109c2826000808673ffffffffffffffffffffffffffffffffffffffff1673ffffffffffffffffffffffffffffffffffffffff16815260200190815260200160002054610b1190919063ffffffff16565b6000808573ffffffffffffffffffffffffffffffffffffffff1673ffffffffffffffffffffffffffffffffffffffff168152602001908152602001600020819055508273ffffffffffffffffffffffffffffffffffffffff163373ffffffffffffffffffffffffffffffffffffffff167fddf252ad1be2c89b69c2b068fc378daa952ba7f163c4a11628f55a4df523b3ef84604051610a619190610e59565b60405180910390a36001905092915050565b6000600160008473ffffffffffffffffffffffffffffffffffffffff1673ffffffffffffffffffffffffffffffffffffffff16815260200190815260200160002060008373ffffffffffffffffffffffffffffffffffffffff1673ffffffffffffffffffffffffffffffffffffffff16815260200190815260200160002054905092915050565b600082821115610b0657fe5b818303905092915050565b600080828401905083811015610b2357fe5b8091505092915050565b600081359050610b3c81610f44565b92915050565b600081359050610b5181610f5b565b92915050565b600060208284031215610b6957600080fd5b6000610b7784828501610b2d565b91505092915050565b60008060408385031215610b9357600080fd5b6000610ba185828601610b2d565b9250506020610bb285828601610b2d565b9150509250929050565b600080600060608486031215610bd157600080fd5b6000610bdf86828701610b2d565b9350506020610bf086828701610b2d565b9250506040610c0186828701610b42565b9150509250925092565b60008060408385031215610c1e57600080fd5b6000610c2c85828601610b2d565b9250506020610c3d85828601610b42565b9150509250929050565b600060208284031215610c5957600080fd5b6000610c6784828501610b42565b91505092915050565b610c7981610ebd565b82525050565b6000610c8a82610e8f565b610c948185610e9a565b9350610ca4818560208601610f00565b610cad81610f33565b840191505092915050565b6000610cc5601483610e9a565b91507f496e73756666696369656e742062616c616e63650000000000000000000000006000830152602082019050919050565b6000610d05602983610e9a565b91507f596f757220617265206e6f7420616c6c6f77656420746f20646f20746869732060008301527f6f7065726174696f6e00000000000000000000000000000000000000000000006020830152604082019050919050565b6000610d6b601483610e9a565b91507f42616c616e636520696e737566696369656e74650000000000000000000000006000830152602082019050919050565b610da781610ee9565b82525050565b610db681610ef3565b82525050565b6000602082019050610dd16000830184610c70565b92915050565b60006020820190508181036000830152610df18184610c7f565b905092915050565b60006020820190508181036000830152610e1281610cb8565b9050919050565b60006020820190508181036000830152610e3281610cf8565b9050919050565b60006020820190508181036000830152610e5281610d5e565b9050919050565b6000602082019050610e6e6000830184610d9e565b92915050565b6000602082019050610e896000830184610dad565b92915050565b600081519050919050565b600082825260208201905092915050565b6000610eb682610ec9565b9050919050565b60008115159050919050565b600073ffffffffffffffffffffffffffffffffffffffff82169050919050565b6000819050919050565b600060ff82169050919050565b60005b83811015610f1e578082015181840152602081019050610f03565b83811115610f2d576000848401525b50505050565b6000601f19601f8301169050919050565b610f4d81610eab565b8114610f5857600080fd5b50565b610f6481610ee9565b8114610f6f57600080fd5b5056fea2646970667358221220c46bd5ec1d694a7ee3393da13ca19e8663129e949ac31aa823435319f80ca8f364736f6c63430006080033",
  "immutableReferences": {},
  "source": "// SPDX-License-Identifier: MIT\r\n\r\npragma solidity >=0.6.0 <0.9.0;\r\nimport \"./VUCE_ERC20.sol\";\r\n\r\ncontract Main {\r\n\r\n    // Instancia del token a administrar\r\n    VUCE_ERC20 private _token;\r\n\r\n    // Owner del contrato\r\n    address private _owner;\r\n\r\n    // Direccion del contrato\r\n    address private _contract;\r\n\r\n    constructor() public {\r\n        _token = new VUCE_ERC20(10000000);\r\n        _owner = msg.sender;\r\n        _contract = address(this);\r\n    }\r\n\r\n    function getOwner() public view returns(address){\r\n        return _owner;\r\n    }\r\n\r\n    function getContract() public view returns(address){\r\n        return _contract;\r\n    }\r\n\r\n\r\n    // comprar tokens mediante direccion de destino y cantidad de tokens\r\n    // el contrato envia tokens a la direccion de destino especificada\r\n    function sendTokens(address receiver, uint amount) public payable {\r\n        // Limite de tokens a comprar\r\n        require(amount <= 10, \"La cantidad de tokens a comprar es demasiado alta\");\r\n\r\n        // Establecer precio de los tokens\r\n        uint tokens_price = tokensPrice(amount);\r\n\r\n        // Verificar que el receiver tenga saldo de ethers para pagar la operacion\r\n        require( msg.value >=  tokens_price, \"Insuficient balance\");\r\n\r\n        // Diferencia de lo que el cliente paga\r\n        uint return_value = msg.value - tokens_price;\r\n\r\n        // retorna la cantidad de tokens determinada en return_value (el vuelto)\r\n        payable(msg.sender).transfer( return_value );\r\n\r\n        // Obtener el balance de tokens disponibles\r\n        uint balance = getContractBalance();\r\n        require( amount <= balance, \"Insuficient tokens\");\r\n\r\n        //Transfiere los tokens al destinatario\r\n        _token.transfer(receiver, amount);\r\n    }\r\n\r\n    function tokensPrice( uint amount ) internal pure returns( uint ){\r\n        return amount * (1 ether);\r\n    }\r\n\r\n    function getAddressBalance(address the_address) public view returns(uint){\r\n        return _token.balanceOf(the_address);\r\n    }\r\n\r\n    function getContractBalance() public view returns(uint){\r\n        return _token.balanceOf(_contract);\r\n    }\r\n\r\n    function mint( uint amount ) public OnlyOwner {\r\n        _token.increaseTotalSupply(amount);\r\n    }\r\n\r\n    modifier OnlyOwner() {\r\n        require( msg.sender == getOwner(), \"Only owner can use this function\");\r\n        _;\r\n    }\r\n\r\n}",
  "sourcePath": "C:\\dev\\ERC20\\src\\contracts\\Main.sol",
  "compiler": {
    "name": "solc",
    "version": "0.6.8+commit.0bbfe453.Emscripten.clang"
  },
  "schemaVersion": "3.4.4",
  "updatedAt": "2022-02-27T19:46:57.619Z",
  "networkType": "ethereum",
  "devdoc": {
    "methods": {}
  },
  "userdoc": {
    "methods": {}
  }
}