{
  "contractName": "VUCE_ERC20",
  "abi": [
    {
      "inputs": [
        {
          "internalType": "uint256",
          "name": "initial_supply",
          "type": "uint256"
        }
      ],
      "stateMutability": "nonpayable",
      "type": "constructor"
    },
    {
      "anonymous": false,
      "inputs": [
        {
          "indexed": true,
          "internalType": "address",
          "name": "owner",
          "type": "address"
        },
        {
          "indexed": true,
          "internalType": "address",
          "name": "spender",
          "type": "address"
        },
        {
          "indexed": false,
          "internalType": "uint256",
          "name": "value",
          "type": "uint256"
        }
      ],
      "name": "Approval",
      "type": "event"
    },
    {
      "anonymous": false,
      "inputs": [
        {
          "indexed": true,
          "internalType": "address",
          "name": "from",
          "type": "address"
        },
        {
          "indexed": true,
          "internalType": "address",
          "name": "to",
          "type": "address"
        },
        {
          "indexed": false,
          "internalType": "uint256",
          "name": "value",
          "type": "uint256"
        }
      ],
      "name": "Transfer",
      "type": "event"
    },
    {
      "inputs": [],
      "name": "decimals",
      "outputs": [
        {
          "internalType": "uint8",
          "name": "",
          "type": "uint8"
        }
      ],
      "stateMutability": "view",
      "type": "function"
    },
    {
      "inputs": [],
      "name": "name",
      "outputs": [
        {
          "internalType": "string",
          "name": "",
          "type": "string"
        }
      ],
      "stateMutability": "view",
      "type": "function"
    },
    {
      "inputs": [],
      "name": "symbol",
      "outputs": [
        {
          "internalType": "string",
          "name": "",
          "type": "string"
        }
      ],
      "stateMutability": "view",
      "type": "function"
    },
    {
      "inputs": [],
      "name": "totalSupply",
      "outputs": [
        {
          "internalType": "uint256",
          "name": "",
          "type": "uint256"
        }
      ],
      "stateMutability": "view",
      "type": "function"
    },
    {
      "inputs": [
        {
          "internalType": "uint256",
          "name": "tokensToAdd",
          "type": "uint256"
        }
      ],
      "name": "increaseTotalSupply",
      "outputs": [],
      "stateMutability": "nonpayable",
      "type": "function"
    },
    {
      "inputs": [
        {
          "internalType": "uint256",
          "name": "tokensToBurn",
          "type": "uint256"
        }
      ],
      "name": "decreaseTotalSupply",
      "outputs": [],
      "stateMutability": "nonpayable",
      "type": "function"
    },
    {
      "inputs": [
        {
          "internalType": "address",
          "name": "account",
          "type": "address"
        }
      ],
      "name": "balanceOf",
      "outputs": [
        {
          "internalType": "uint256",
          "name": "",
          "type": "uint256"
        }
      ],
      "stateMutability": "view",
      "type": "function"
    },
    {
      "inputs": [
        {
          "internalType": "address",
          "name": "owner",
          "type": "address"
        },
        {
          "internalType": "address",
          "name": "spender",
          "type": "address"
        }
      ],
      "name": "allowance",
      "outputs": [
        {
          "internalType": "uint256",
          "name": "",
          "type": "uint256"
        }
      ],
      "stateMutability": "view",
      "type": "function"
    },
    {
      "inputs": [
        {
          "internalType": "address",
          "name": "recipient",
          "type": "address"
        },
        {
          "internalType": "uint256",
          "name": "amount",
          "type": "uint256"
        }
      ],
      "name": "transfer",
      "outputs": [
        {
          "internalType": "bool",
          "name": "",
          "type": "bool"
        }
      ],
      "stateMutability": "nonpayable",
      "type": "function"
    },
    {
      "inputs": [
        {
          "internalType": "address",
          "name": "spender",
          "type": "address"
        },
        {
          "internalType": "uint256",
          "name": "amount",
          "type": "uint256"
        }
      ],
      "name": "approve",
      "outputs": [
        {
          "internalType": "bool",
          "name": "",
          "type": "bool"
        }
      ],
      "stateMutability": "nonpayable",
      "type": "function"
    },
    {
      "inputs": [
        {
          "internalType": "address",
          "name": "owner",
          "type": "address"
        },
        {
          "internalType": "address",
          "name": "recipient",
          "type": "address"
        },
        {
          "internalType": "uint256",
          "name": "amount",
          "type": "uint256"
        }
      ],
      "name": "transferFrom",
      "outputs": [
        {
          "internalType": "bool",
          "name": "",
          "type": "bool"
        }
      ],
      "stateMutability": "nonpayable",
      "type": "function"
    }
  ],
  "bytecode": "0x608060405234801561001057600080fd5b5060405161109a38038061109a83398181016040528101906100329190610099565b806002819055506002546000803373ffffffffffffffffffffffffffffffffffffffff1673ffffffffffffffffffffffffffffffffffffffff16815260200190815260200160002081905550506100e3565b600081519050610093816100cc565b92915050565b6000602082840312156100ab57600080fd5b60006100b984828501610084565b91505092915050565b6000819050919050565b6100d5816100c2565b81146100e057600080fd5b50565b610fa8806100f26000396000f3fe608060405234801561001057600080fd5b50600436106100a95760003560e01c8063313ce56711610071578063313ce567146101665780636e1145111461018457806370a08231146101a057806395d89b41146101d0578063a9059cbb146101ee578063dd62ed3e1461021e576100a9565b806306fdde03146100ae578063095ea7b3146100cc57806318160ddd146100fc5780631d43cc981461011a57806323b872dd14610136575b600080fd5b6100b661024e565b6040516100c39190610dd7565b60405180910390f35b6100e660048036038101906100e19190610c0b565b610287565b6040516100f39190610dbc565b60405180910390f35b610104610382565b6040516101119190610e59565b60405180910390f35b610134600480360381019061012f9190610c47565b61038c565b005b610150600480360381019061014b9190610bbc565b6103eb565b60405161015d9190610dbc565b60405180910390f35b61016e6107d2565b60405161017b9190610e74565b60405180910390f35b61019e60048036038101906101999190610c47565b6107d7565b005b6101ba60048036038101906101b59190610b57565b6107da565b6040516101c79190610e59565b60405180910390f35b6101d8610822565b6040516101e59190610dd7565b60405180910390f35b61020860048036038101906102039190610c0b565b61085b565b6040516102159190610dbc565b60405180910390f35b61023860048036038101906102339190610b80565b610a73565b6040516102459190610e59565b60405180910390f35b6040518060400160405280600981526020017f5675636520436f696e000000000000000000000000000000000000000000000081525081565b600081600160003373ffffffffffffffffffffffffffffffffffffffff1673ffffffffffffffffffffffffffffffffffffffff16815260200190815260200160002060008573ffffffffffffffffffffffffffffffffffffffff1673ffffffffffffffffffffffffffffffffffffffff168152602001908152602001600020600082825401925050819055508273ffffffffffffffffffffffffffffffffffffffff163373ffffffffffffffffffffffffffffffffffffffff167f8c5be1e5ebec7d5bd14f71427d1e84f3dd0314c0f7b2291e5b200ac8c7c3b925846040516103709190610e59565b60405180910390a36001905092915050565b6000600254905090565b80600260008282540192505081905550806000803373ffffffffffffffffffffffffffffffffffffffff1673ffffffffffffffffffffffffffffffffffffffff1681526020019081526020016000206000828254019250508190555050565b6000816000808673ffffffffffffffffffffffffffffffffffffffff1673ffffffffffffffffffffffffffffffffffffffff16815260200190815260200160002054101561046e576040517f08c379a000000000000000000000000000000000000000000000000000000000815260040161046590610df9565b60405180910390fd5b81600160008673ffffffffffffffffffffffffffffffffffffffff1673ffffffffffffffffffffffffffffffffffffffff16815260200190815260200160002060003373ffffffffffffffffffffffffffffffffffffffff1673ffffffffffffffffffffffffffffffffffffffff16815260200190815260200160002054101561052d576040517f08c379a000000000000000000000000000000000000000000000000000000000815260040161052490610e19565b60405180910390fd5b61057e826000808773ffffffffffffffffffffffffffffffffffffffff1673ffffffffffffffffffffffffffffffffffffffff16815260200190815260200160002054610afa90919063ffffffff16565b6000808673ffffffffffffffffffffffffffffffffffffffff1673ffffffffffffffffffffffffffffffffffffffff1681526020019081526020016000208190555061064f82600160008773ffffffffffffffffffffffffffffffffffffffff1673ffffffffffffffffffffffffffffffffffffffff16815260200190815260200160002060003373ffffffffffffffffffffffffffffffffffffffff1673ffffffffffffffffffffffffffffffffffffffff16815260200190815260200160002054610afa90919063ffffffff16565b600160008673ffffffffffffffffffffffffffffffffffffffff1673ffffffffffffffffffffffffffffffffffffffff16815260200190815260200160002060003373ffffffffffffffffffffffffffffffffffffffff1673ffffffffffffffffffffffffffffffffffffffff16815260200190815260200160002081905550610720826000808673ffffffffffffffffffffffffffffffffffffffff1673ffffffffffffffffffffffffffffffffffffffff16815260200190815260200160002054610b1190919063ffffffff16565b6000808573ffffffffffffffffffffffffffffffffffffffff1673ffffffffffffffffffffffffffffffffffffffff168152602001908152602001600020819055508273ffffffffffffffffffffffffffffffffffffffff168473ffffffffffffffffffffffffffffffffffffffff167fddf252ad1be2c89b69c2b068fc378daa952ba7f163c4a11628f55a4df523b3ef846040516107bf9190610e59565b60405180910390a3600190509392505050565b600281565b50565b60008060008373ffffffffffffffffffffffffffffffffffffffff1673ffffffffffffffffffffffffffffffffffffffff168152602001908152602001600020549050919050565b6040518060400160405280600481526020017f565543450000000000000000000000000000000000000000000000000000000081525081565b60008060003373ffffffffffffffffffffffffffffffffffffffff1673ffffffffffffffffffffffffffffffffffffffff168152602001908152602001600020548211156108de576040517f08c379a00000000000000000000000000000000000000000000000000000000081526004016108d590610e39565b60405180910390fd5b61092f826000803373ffffffffffffffffffffffffffffffffffffffff1673ffffffffffffffffffffffffffffffffffffffff16815260200190815260200160002054610afa90919063ffffffff16565b6000803373ffffffffffffffffffffffffffffffffffffffff1673ffffffffffffffffffffffffffffffffffffffff168152602001908152602001600020819055506109c2826000808673ffffffffffffffffffffffffffffffffffffffff1673ffffffffffffffffffffffffffffffffffffffff16815260200190815260200160002054610b1190919063ffffffff16565b6000808573ffffffffffffffffffffffffffffffffffffffff1673ffffffffffffffffffffffffffffffffffffffff168152602001908152602001600020819055508273ffffffffffffffffffffffffffffffffffffffff163373ffffffffffffffffffffffffffffffffffffffff167fddf252ad1be2c89b69c2b068fc378daa952ba7f163c4a11628f55a4df523b3ef84604051610a619190610e59565b60405180910390a36001905092915050565b6000600160008473ffffffffffffffffffffffffffffffffffffffff1673ffffffffffffffffffffffffffffffffffffffff16815260200190815260200160002060008373ffffffffffffffffffffffffffffffffffffffff1673ffffffffffffffffffffffffffffffffffffffff16815260200190815260200160002054905092915050565b600082821115610b0657fe5b818303905092915050565b600080828401905083811015610b2357fe5b8091505092915050565b600081359050610b3c81610f44565b92915050565b600081359050610b5181610f5b565b92915050565b600060208284031215610b6957600080fd5b6000610b7784828501610b2d565b91505092915050565b60008060408385031215610b9357600080fd5b6000610ba185828601610b2d565b9250506020610bb285828601610b2d565b9150509250929050565b600080600060608486031215610bd157600080fd5b6000610bdf86828701610b2d565b9350506020610bf086828701610b2d565b9250506040610c0186828701610b42565b9150509250925092565b60008060408385031215610c1e57600080fd5b6000610c2c85828601610b2d565b9250506020610c3d85828601610b42565b9150509250929050565b600060208284031215610c5957600080fd5b6000610c6784828501610b42565b91505092915050565b610c7981610ebd565b82525050565b6000610c8a82610e8f565b610c948185610e9a565b9350610ca4818560208601610f00565b610cad81610f33565b840191505092915050565b6000610cc5601483610e9a565b91507f496e73756666696369656e742062616c616e63650000000000000000000000006000830152602082019050919050565b6000610d05602983610e9a565b91507f596f757220617265206e6f7420616c6c6f77656420746f20646f20746869732060008301527f6f7065726174696f6e00000000000000000000000000000000000000000000006020830152604082019050919050565b6000610d6b601483610e9a565b91507f42616c616e636520696e737566696369656e74650000000000000000000000006000830152602082019050919050565b610da781610ee9565b82525050565b610db681610ef3565b82525050565b6000602082019050610dd16000830184610c70565b92915050565b60006020820190508181036000830152610df18184610c7f565b905092915050565b60006020820190508181036000830152610e1281610cb8565b9050919050565b60006020820190508181036000830152610e3281610cf8565b9050919050565b60006020820190508181036000830152610e5281610d5e565b9050919050565b6000602082019050610e6e6000830184610d9e565b92915050565b6000602082019050610e896000830184610dad565b92915050565b600081519050919050565b600082825260208201905092915050565b6000610eb682610ec9565b9050919050565b60008115159050919050565b600073ffffffffffffffffffffffffffffffffffffffff82169050919050565b6000819050919050565b600060ff82169050919050565b60005b83811015610f1e578082015181840152602081019050610f03565b83811115610f2d576000848401525b50505050565b6000601f19601f8301169050919050565b610f4d81610eab565b8114610f5857600080fd5b50565b610f6481610ee9565b8114610f6f57600080fd5b5056fea2646970667358221220c46bd5ec1d694a7ee3393da13ca19e8663129e949ac31aa823435319f80ca8f364736f6c63430006080033",
  "immutableReferences": {},
  "source": "// SPDX-License-Identifier: MIT\r\n\r\npragma solidity >=0.6.0 <0.9.0;\r\npragma experimental ABIEncoderV2;\r\nimport \"./SafeMath.sol\";\r\n\r\n\r\n// Interface de mi token ERC20\r\ninterface IERC20 {\r\n    // returns the token total supply\r\n    function totalSupply() external view returns(uint256);\r\n\r\n    // returns the token amount for a token address\r\n    function balanceOf(address account) external view returns(uint256);\r\n\r\n    // returns the tokem amount that the spender can spend as the owner\r\n    function allowance(address owner, address spender) external view returns(uint256); \r\n\r\n    // returns a boolean results from the operation\r\n    function transfer(address recipient, uint256 amount) external returns(bool);\r\n\r\n    // returns a boolean results from the spend operation\r\n    function approve(address spender, uint256 amount) external returns(bool);\r\n\r\n    // returns a boolean result from the operation of transfer a token amount using the allowance method\r\n    function transferFrom(address sender, address recipient, uint256 amount) external returns(bool);\r\n\r\n    // evento q se debe emitir cuando una cantidad de tokens pase de un origen a un destino\r\n    event Transfer(address indexed from, address indexed to, uint256 value);\r\n\r\n    // evento q se debe emitir cuando se establece una asignacion con el metodo allowance\r\n    event Approval(address indexed owner, address indexed spender, uint256 value);\r\n}\r\n\r\n// Mia 0x5B38Da6a701c568545dCfcB03FcB875f56beddC4\r\n// w2  0x17F6AD8Ef982297579C203069C1DbfFE4348c372\r\n// w3  0xdD870fA1b7C4700F2BD7f44238821C26f7392148\r\n\r\ncontract VUCE_ERC20 is IERC20 {\r\n    using SafeMath for uint256;\r\n\r\n    string public constant name = \"Vuce Coin\";\r\n    string public constant symbol = \"VUCE\";\r\n    uint8 public constant decimals = 2;\r\n\r\n    mapping( address => uint ) balance;\r\n    mapping( address => mapping( address => uint ) ) allowed;\r\n    uint256 total_supply;\r\n\r\n    constructor ( uint256 initial_supply ) public {\r\n        total_supply = initial_supply;\r\n        balance[msg.sender] = total_supply;\r\n    }\r\n\r\n    function totalSupply() public override view returns(uint256){\r\n        return total_supply;\r\n    }\r\n\r\n    // solo Owner\r\n    function increaseTotalSupply(uint tokensToAdd) public {\r\n        total_supply += tokensToAdd;\r\n        balance[msg.sender] += tokensToAdd;\r\n    } \r\n\r\n    function decreaseTotalSupply(uint tokensToBurn) public {\r\n\r\n    }\r\n\r\n    function balanceOf(address account) public override view returns(uint256){\r\n        return balance[account];\r\n    }\r\n\r\n    function allowance(address owner, address spender) public override view returns(uint256){\r\n        return allowed[owner][spender];\r\n    }\r\n\r\n    // \r\n    function transfer(address recipient, uint256 amount) public override returns(bool){\r\n        require( amount <= balance[msg.sender], \"Balance insuficiente\" );\r\n        balance[msg.sender] = balance[msg.sender].sub( amount );\r\n        balance[recipient] = balance[recipient].add( amount );\r\n\r\n        emit Transfer(msg.sender, recipient, amount);\r\n\r\n        return true;\r\n    }\r\n\r\n    //owner only\r\n    function approve(address spender, uint256 amount) external override returns(bool){\r\n        allowed[msg.sender][spender] += amount;\r\n        emit Approval(msg.sender, spender, amount);\r\n\r\n        return true;\r\n    }\r\n\r\n    // delegated only    \r\n    function transferFrom(address owner, address recipient, uint256 amount) public override returns(bool){\r\n        require( balance[owner] >= amount, \"Insufficient balance\");\r\n        require( allowed[owner][msg.sender] >= amount, \"Your are not allowed to do this operation\" );\r\n        balance[owner] = balance[owner].sub(amount);\r\n        allowed[owner][msg.sender] = allowed[owner][msg.sender].sub(amount);\r\n        \r\n        balance[recipient] = balance[recipient].add(amount);\r\n        \r\n        emit Transfer(owner, recipient, amount);\r\n\r\n        return true;\r\n    }\r\n}\r\n\r\n",
  "sourcePath": "C:\\dev\\ERC20\\src\\contracts\\VUCE_ERC20.sol",
  "compiler": {
    "name": "solc",
    "version": "0.6.8+commit.0bbfe453.Emscripten.clang"
  },
  "schemaVersion": "3.4.4",
  "updatedAt": "2022-02-27T19:46:54.086Z",
  "devdoc": {
    "methods": {}
  },
  "userdoc": {
    "methods": {}
  }
}